{
  "contractName": "CarbonCredit",
  "abi": [
    {
      "inputs": [],
      "stateMutability": "nonpayable",
      "type": "constructor"
    },
    {
      "inputs": [
        {
          "internalType": "uint256",
          "name": "requested",
          "type": "uint256"
        },
        {
          "internalType": "uint256",
          "name": "available",
          "type": "uint256"
        }
      ],
      "name": "InsufficientBalance",
      "type": "error"
    },
    {
      "inputs": [
        {
          "internalType": "address",
          "name": "addr",
          "type": "address"
        }
      ],
      "name": "UnknownAddress",
      "type": "error"
    },
    {
      "anonymous": false,
      "inputs": [
        {
          "indexed": false,
          "internalType": "address",
          "name": "from",
          "type": "address"
        },
        {
          "indexed": false,
          "internalType": "address",
          "name": "to",
          "type": "address"
        },
        {
          "indexed": false,
          "internalType": "uint256",
          "name": "amount",
          "type": "uint256"
        }
      ],
      "name": "Sent",
      "type": "event"
    },
    {
      "inputs": [
        {
          "internalType": "address",
          "name": "",
          "type": "address"
        }
      ],
      "name": "balances",
      "outputs": [
        {
          "internalType": "uint256",
          "name": "",
          "type": "uint256"
        }
      ],
      "stateMutability": "view",
      "type": "function",
      "constant": true
    },
    {
      "inputs": [
        {
          "internalType": "address",
          "name": "",
          "type": "address"
        }
      ],
      "name": "bids",
      "outputs": [
        {
          "internalType": "contract Escrow",
          "name": "",
          "type": "address"
        }
      ],
      "stateMutability": "view",
      "type": "function",
      "constant": true
    },
    {
      "inputs": [],
      "name": "minter",
      "outputs": [
        {
          "internalType": "address",
          "name": "",
          "type": "address"
        }
      ],
      "stateMutability": "view",
      "type": "function",
      "constant": true
    },
    {
      "inputs": [
        {
          "internalType": "address",
          "name": "",
          "type": "address"
        }
      ],
      "name": "ndcs",
      "outputs": [
        {
          "internalType": "uint256",
          "name": "",
          "type": "uint256"
        }
      ],
      "stateMutability": "view",
      "type": "function",
      "constant": true
    },
    {
      "inputs": [
        {
          "internalType": "address",
          "name": "_cct",
          "type": "address"
        }
      ],
      "name": "join",
      "outputs": [],
      "stateMutability": "nonpayable",
      "type": "function"
    },
    {
      "inputs": [],
      "name": "getYear",
      "outputs": [
        {
          "internalType": "uint256",
          "name": "",
          "type": "uint256"
        }
      ],
      "stateMutability": "view",
      "type": "function",
      "constant": true
    },
    {
      "inputs": [
        {
          "internalType": "address",
          "name": "addr",
          "type": "address"
        }
      ],
      "name": "getBalance",
      "outputs": [
        {
          "internalType": "uint256",
          "name": "",
          "type": "uint256"
        }
      ],
      "stateMutability": "view",
      "type": "function",
      "constant": true
    },
    {
      "inputs": [
        {
          "internalType": "address",
          "name": "addr",
          "type": "address"
        }
      ],
      "name": "getTargetNDC",
      "outputs": [
        {
          "internalType": "uint256",
          "name": "",
          "type": "uint256"
        }
      ],
      "stateMutability": "view",
      "type": "function",
      "constant": true
    },
    {
      "inputs": [
        {
          "internalType": "uint256",
          "name": "amount",
          "type": "uint256"
        }
      ],
      "name": "setTargetNDC",
      "outputs": [],
      "stateMutability": "nonpayable",
      "type": "function"
    },
    {
      "inputs": [
        {
          "internalType": "address",
          "name": "receiver",
          "type": "address"
        },
        {
          "internalType": "uint256",
          "name": "amount",
          "type": "uint256"
        }
      ],
      "name": "issue",
      "outputs": [],
      "stateMutability": "nonpayable",
      "type": "function"
    },
    {
      "inputs": [
        {
          "internalType": "address",
          "name": "addr",
          "type": "address"
        }
      ],
      "name": "getBid",
      "outputs": [
        {
          "internalType": "uint256",
          "name": "",
          "type": "uint256"
        },
        {
          "internalType": "uint256",
          "name": "",
          "type": "uint256"
        },
        {
          "internalType": "address",
          "name": "",
          "type": "address"
        }
      ],
      "stateMutability": "view",
      "type": "function",
      "constant": true
    },
    {
      "inputs": [
        {
          "internalType": "address",
          "name": "_cct",
          "type": "address"
        },
        {
          "internalType": "uint256",
          "name": "amount",
          "type": "uint256"
        },
        {
          "internalType": "uint256",
          "name": "price",
          "type": "uint256"
        }
      ],
      "name": "requestToBuy",
      "outputs": [
        {
          "internalType": "address",
          "name": "",
          "type": "address"
        }
      ],
      "stateMutability": "nonpayable",
      "type": "function"
    },
    {
      "inputs": [
        {
          "internalType": "address",
          "name": "receiver",
          "type": "address"
        }
      ],
      "name": "fillRequest",
      "outputs": [],
      "stateMutability": "nonpayable",
      "type": "function"
    },
    {
      "inputs": [
        {
          "internalType": "address",
          "name": "receiver",
          "type": "address"
        },
        {
          "internalType": "uint256",
          "name": "amount",
          "type": "uint256"
        }
      ],
      "name": "sendCredits",
      "outputs": [],
      "stateMutability": "nonpayable",
      "type": "function"
    },
    {
      "inputs": [
        {
          "internalType": "address",
          "name": "consumer",
          "type": "address"
        },
        {
          "internalType": "uint256",
          "name": "amount",
          "type": "uint256"
        }
      ],
      "name": "consume",
      "outputs": [],
      "stateMutability": "nonpayable",
      "type": "function"
    }
  ],
  "bytecode": "0x608060405234801561001057600080fd5b50336000806101000a81548173ffffffffffffffffffffffffffffffffffffffff021916908373ffffffffffffffffffffffffffffffffffffffff1602179055506107e66002819055506129ed806100696000396000f3fe60806040523480156200001157600080fd5b50600436106200010c5760003560e01c8063712d8dfe11620000a5578063c1d7799d116200006f578063c1d7799d14620002cb578063c8b342ab1462000301578063f8b2cb4f1462000339578063fd08921b146200036f576200010c565b8063712d8dfe14620002355780637dfa48681462000255578063867904b41462000275578063a94371d41462000295576200010c565b806328ffe6c811620000e757806328ffe6c814620001895780632b6cc6cc14620001a9578063550b77c014620001c957806362ea82db14620001ff576200010c565b8063075461721462000111578063224b5c72146200013357806327e235e31462000153575b600080fd5b6200011b62000391565b6040516200012a919062001859565b60405180910390f35b6200015160048036038101906200014b9190620018e7565b620003b5565b005b6200017160048036038101906200016b91906200192e565b62000569565b60405162000180919062001971565b60405180910390f35b620001a76004803603810190620001a191906200192e565b62000581565b005b620001c76004803603810190620001c191906200198e565b620006b5565b005b620001e76004803603810190620001e19190620019c0565b6200074b565b604051620001f6919062001859565b60405180910390f35b6200021d60048036038101906200021791906200192e565b62000a17565b6040516200022c919062001a87565b60405180910390f35b6200025360048036038101906200024d91906200192e565b62000a4a565b005b6200027360048036038101906200026d9190620018e7565b620010dc565b005b6200029360048036038101906200028d9190620018e7565b62001295565b005b620002b36004803603810190620002ad91906200192e565b620013b4565b604051620002c2919062001971565b60405180910390f35b620002e96004803603810190620002e391906200192e565b620013cc565b604051620002f8919062001971565b60405180910390f35b6200031f60048036038101906200031991906200192e565b62001415565b604051620003309392919062001aa4565b60405180910390f35b6200035760048036038101906200035191906200192e565b620016fb565b60405162000366919062001971565b60405180910390f35b6200037962001744565b60405162000388919062001971565b60405180910390f35b60008054906101000a900473ffffffffffffffffffffffffffffffffffffffff1681565b8173ffffffffffffffffffffffffffffffffffffffff163373ffffffffffffffffffffffffffffffffffffffff1614806200043b575060008054906101000a900473ffffffffffffffffffffffffffffffffffffffff1673ffffffffffffffffffffffffffffffffffffffff163373ffffffffffffffffffffffffffffffffffffffff16145b6200044557600080fd5b600560008373ffffffffffffffffffffffffffffffffffffffff1673ffffffffffffffffffffffffffffffffffffffff168152602001908152602001600020548111156200050d5780600560008473ffffffffffffffffffffffffffffffffffffffff1673ffffffffffffffffffffffffffffffffffffffff168152602001908152602001600020546040517fcf4791810000000000000000000000000000000000000000000000000000000081526004016200050492919062001ae1565b60405180910390fd5b80600560008473ffffffffffffffffffffffffffffffffffffffff1673ffffffffffffffffffffffffffffffffffffffff16815260200190815260200160002060008282546200055e919062001b3d565b925050819055505050565b60056020528060005260406000206000915090505481565b6200058c336200174e565b620006b2576003339080600181540180825580915050600190039060005260206000200160009091909190916101000a81548173ffffffffffffffffffffffffffffffffffffffff021916908373ffffffffffffffffffffffffffffffffffffffff1602179055503381306000604051620006079062001806565b62000616949392919062001bbb565b604051809103906000f08015801562000633573d6000803e3d6000fd5b50600660003373ffffffffffffffffffffffffffffffffffffffff1673ffffffffffffffffffffffffffffffffffffffff16815260200190815260200160002060006101000a81548173ffffffffffffffffffffffffffffffffffffffff021916908373ffffffffffffffffffffffffffffffffffffffff1602179055505b50565b620006c0336200174e565b6200070457336040517f1de4e3dd000000000000000000000000000000000000000000000000000000008152600401620006fb919062001859565b60405180910390fd5b80600460003373ffffffffffffffffffffffffffffffffffffffff1673ffffffffffffffffffffffffffffffffffffffff1681526020019081526020016000208190555050565b600062000758336200174e565b6200079c57336040517f1de4e3dd00000000000000000000000000000000000000000000000000000000815260040162000793919062001859565b60405180910390fd5b600660003373ffffffffffffffffffffffffffffffffffffffff1673ffffffffffffffffffffffffffffffffffffffff16815260200190815260200160002060009054906101000a900473ffffffffffffffffffffffffffffffffffffffff1673ffffffffffffffffffffffffffffffffffffffff1663267c4ae46040518163ffffffff1660e01b8152600401602060405180830381865afa15801562000847573d6000803e3d6000fd5b505050506040513d601f19601f820116820180604052508101906200086d919062001c45565b15620008db57600660003373ffffffffffffffffffffffffffffffffffffffff1673ffffffffffffffffffffffffffffffffffffffff16815260200190815260200160002060009054906101000a900473ffffffffffffffffffffffffffffffffffffffff16905062000a10565b600033853086604051620008ef9062001806565b620008fe949392919062001c77565b604051809103906000f0801580156200091b573d6000803e3d6000fd5b5090508073ffffffffffffffffffffffffffffffffffffffff1663b6b55f25846040518263ffffffff1660e01b815260040162000959919062001971565b600060405180830381600087803b1580156200097457600080fd5b505af115801562000989573d6000803e3d6000fd5b5050505080600660003373ffffffffffffffffffffffffffffffffffffffff1673ffffffffffffffffffffffffffffffffffffffff16815260200190815260200160002060006101000a81548173ffffffffffffffffffffffffffffffffffffffff021916908373ffffffffffffffffffffffffffffffffffffffff160217905550809150505b9392505050565b60066020528060005260406000206000915054906101000a900473ffffffffffffffffffffffffffffffffffffffff1681565b62000a55336200174e565b62000a9957336040517f1de4e3dd00000000000000000000000000000000000000000000000000000000815260040162000a90919062001859565b60405180910390fd5b62000aa4816200174e565b62000ae857806040517f1de4e3dd00000000000000000000000000000000000000000000000000000000815260040162000adf919062001859565b60405180910390fd5b600660008273ffffffffffffffffffffffffffffffffffffffff1673ffffffffffffffffffffffffffffffffffffffff16815260200190815260200160002060009054906101000a900473ffffffffffffffffffffffffffffffffffffffff1673ffffffffffffffffffffffffffffffffffffffff16632852b71c6040518163ffffffff1660e01b8152600401600060405180830381600087803b15801562000b9057600080fd5b505af115801562000ba5573d6000803e3d6000fd5b505050506000600660008373ffffffffffffffffffffffffffffffffffffffff1673ffffffffffffffffffffffffffffffffffffffff16815260200190815260200160002060009054906101000a900473ffffffffffffffffffffffffffffffffffffffff1673ffffffffffffffffffffffffffffffffffffffff1663d321fe296040518163ffffffff1660e01b8152600401602060405180830381865afa15801562000c56573d6000803e3d6000fd5b505050506040513d601f19601f8201168201806040525081019062000c7c919062001cdb565b9050600560003373ffffffffffffffffffffffffffffffffffffffff1673ffffffffffffffffffffffffffffffffffffffff1681526020019081526020016000205481111562000d465780600560003373ffffffffffffffffffffffffffffffffffffffff1673ffffffffffffffffffffffffffffffffffffffff168152602001908152602001600020546040517fcf47918100000000000000000000000000000000000000000000000000000000815260040162000d3d92919062001ae1565b60405180910390fd5b80600560003373ffffffffffffffffffffffffffffffffffffffff1673ffffffffffffffffffffffffffffffffffffffff168152602001908152602001600020600082825462000d97919062001b3d565b9250508190555080600560008473ffffffffffffffffffffffffffffffffffffffff1673ffffffffffffffffffffffffffffffffffffffff168152602001908152602001600020600082825462000def919062001d0d565b925050819055507f3990db2d31862302a685e8086b5755072a6e2b5b780af1ee81ece35ee3cd334533838360405162000e2b9392919062001d6a565b60405180910390a1600660008373ffffffffffffffffffffffffffffffffffffffff1673ffffffffffffffffffffffffffffffffffffffff16815260200190815260200160002060009054906101000a900473ffffffffffffffffffffffffffffffffffffffff1673ffffffffffffffffffffffffffffffffffffffff1663a69df4b56040518163ffffffff1660e01b8152600401600060405180830381600087803b15801562000edb57600080fd5b505af115801562000ef0573d6000803e3d6000fd5b50505050600660008373ffffffffffffffffffffffffffffffffffffffff1673ffffffffffffffffffffffffffffffffffffffff16815260200190815260200160002060009054906101000a900473ffffffffffffffffffffffffffffffffffffffff1673ffffffffffffffffffffffffffffffffffffffff16633ccfd60b6040518163ffffffff1660e01b8152600401600060405180830381600087803b15801562000f9c57600080fd5b505af115801562000fb1573d6000803e3d6000fd5b50505050600660008373ffffffffffffffffffffffffffffffffffffffff1673ffffffffffffffffffffffffffffffffffffffff16815260200190815260200160002060009054906101000a900473ffffffffffffffffffffffffffffffffffffffff1673ffffffffffffffffffffffffffffffffffffffff166343d726d66040518163ffffffff1660e01b8152600401600060405180830381600087803b1580156200105d57600080fd5b505af115801562001072573d6000803e3d6000fd5b50505050600660008373ffffffffffffffffffffffffffffffffffffffff1673ffffffffffffffffffffffffffffffffffffffff16815260200190815260200160002060006101000a81549073ffffffffffffffffffffffffffffffffffffffff02191690555050565b600560003373ffffffffffffffffffffffffffffffffffffffff1673ffffffffffffffffffffffffffffffffffffffff16815260200190815260200160002054811115620011a45780600560003373ffffffffffffffffffffffffffffffffffffffff1673ffffffffffffffffffffffffffffffffffffffff168152602001908152602001600020546040517fcf4791810000000000000000000000000000000000000000000000000000000081526004016200119b92919062001ae1565b60405180910390fd5b80600560003373ffffffffffffffffffffffffffffffffffffffff1673ffffffffffffffffffffffffffffffffffffffff1681526020019081526020016000206000828254620011f5919062001b3d565b9250508190555080600560008473ffffffffffffffffffffffffffffffffffffffff1673ffffffffffffffffffffffffffffffffffffffff16815260200190815260200160002060008282546200124d919062001d0d565b925050819055507f3990db2d31862302a685e8086b5755072a6e2b5b780af1ee81ece35ee3cd3345338383604051620012899392919062001d6a565b60405180910390a15050565b620012a0826200174e565b620012e457816040517f1de4e3dd000000000000000000000000000000000000000000000000000000008152600401620012db919062001859565b60405180910390fd5b60008054906101000a900473ffffffffffffffffffffffffffffffffffffffff1673ffffffffffffffffffffffffffffffffffffffff163373ffffffffffffffffffffffffffffffffffffffff16146200133d57600080fd5b80600560008473ffffffffffffffffffffffffffffffffffffffff1673ffffffffffffffffffffffffffffffffffffffff16815260200190815260200160002060008282546200138e919062001d0d565b925050819055508060016000828254620013a9919062001d0d565b925050819055505050565b60046020528060005260406000206000915090505481565b6000600460008373ffffffffffffffffffffffffffffffffffffffff1673ffffffffffffffffffffffffffffffffffffffff168152602001908152602001600020549050919050565b600080600062001425846200174e565b6200146957836040517f1de4e3dd00000000000000000000000000000000000000000000000000000000815260040162001460919062001859565b60405180910390fd5b6000600660008673ffffffffffffffffffffffffffffffffffffffff1673ffffffffffffffffffffffffffffffffffffffff16815260200190815260200160002060009054906101000a900473ffffffffffffffffffffffffffffffffffffffff1673ffffffffffffffffffffffffffffffffffffffff1663d321fe296040518163ffffffff1660e01b8152600401602060405180830381865afa15801562001516573d6000803e3d6000fd5b505050506040513d601f19601f820116820180604052508101906200153c919062001cdb565b90506000600660008773ffffffffffffffffffffffffffffffffffffffff1673ffffffffffffffffffffffffffffffffffffffff16815260200190815260200160002060009054906101000a900473ffffffffffffffffffffffffffffffffffffffff1673ffffffffffffffffffffffffffffffffffffffff1663a035b1fe6040518163ffffffff1660e01b8152600401602060405180830381865afa158015620015eb573d6000803e3d6000fd5b505050506040513d601f19601f8201168201806040525081019062001611919062001cdb565b90506000600660008873ffffffffffffffffffffffffffffffffffffffff1673ffffffffffffffffffffffffffffffffffffffff16815260200190815260200160002060009054906101000a900473ffffffffffffffffffffffffffffffffffffffff1673ffffffffffffffffffffffffffffffffffffffff1663dbd0e1b66040518163ffffffff1660e01b8152600401602060405180830381865afa158015620016c0573d6000803e3d6000fd5b505050506040513d601f19601f82011682018060405250810190620016e6919062001dbe565b90508282829550955095505050509193909250565b6000600560008373ffffffffffffffffffffffffffffffffffffffff1673ffffffffffffffffffffffffffffffffffffffff168152602001908152602001600020549050919050565b6000600254905090565b600080600090505b600380549050811015620017fb578273ffffffffffffffffffffffffffffffffffffffff166003828154811062001792576200179162001df0565b5b9060005260206000200160009054906101000a900473ffffffffffffffffffffffffffffffffffffffff1673ffffffffffffffffffffffffffffffffffffffff161415620017e557600191505062001801565b8080620017f29062001e1f565b91505062001756565b50600090505b919050565b610b4a8062001e6e83390190565b600073ffffffffffffffffffffffffffffffffffffffff82169050919050565b6000620018418262001814565b9050919050565b620018538162001834565b82525050565b600060208201905062001870600083018462001848565b92915050565b600080fd5b620018868162001834565b81146200189257600080fd5b50565b600081359050620018a6816200187b565b92915050565b6000819050919050565b620018c181620018ac565b8114620018cd57600080fd5b50565b600081359050620018e181620018b6565b92915050565b6000806040838503121562001901576200190062001876565b5b6000620019118582860162001895565b92505060206200192485828601620018d0565b9150509250929050565b60006020828403121562001947576200194662001876565b5b6000620019578482850162001895565b91505092915050565b6200196b81620018ac565b82525050565b600060208201905062001988600083018462001960565b92915050565b600060208284031215620019a757620019a662001876565b5b6000620019b784828501620018d0565b91505092915050565b600080600060608486031215620019dc57620019db62001876565b5b6000620019ec8682870162001895565b9350506020620019ff86828701620018d0565b925050604062001a1286828701620018d0565b9150509250925092565b6000819050919050565b600062001a4762001a4162001a3b8462001814565b62001a1c565b62001814565b9050919050565b600062001a5b8262001a26565b9050919050565b600062001a6f8262001a4e565b9050919050565b62001a818162001a62565b82525050565b600060208201905062001a9e600083018462001a76565b92915050565b600060608201905062001abb600083018662001960565b62001aca602083018562001960565b62001ad9604083018462001848565b949350505050565b600060408201905062001af8600083018562001960565b62001b07602083018462001960565b9392505050565b7f4e487b7100000000000000000000000000000000000000000000000000000000600052601160045260246000fd5b600062001b4a82620018ac565b915062001b5783620018ac565b92508282101562001b6d5762001b6c62001b0e565b5b828203905092915050565b6000819050919050565b600062001ba362001b9d62001b978462001b78565b62001a1c565b620018ac565b9050919050565b62001bb58162001b82565b82525050565b600060808201905062001bd2600083018762001848565b62001be1602083018662001848565b62001bf0604083018562001848565b62001bff606083018462001baa565b95945050505050565b60008115159050919050565b62001c1f8162001c08565b811462001c2b57600080fd5b50565b60008151905062001c3f8162001c14565b92915050565b60006020828403121562001c5e5762001c5d62001876565b5b600062001c6e8482850162001c2e565b91505092915050565b600060808201905062001c8e600083018762001848565b62001c9d602083018662001848565b62001cac604083018562001848565b62001cbb606083018462001960565b95945050505050565b60008151905062001cd581620018b6565b92915050565b60006020828403121562001cf45762001cf362001876565b5b600062001d048482850162001cc4565b91505092915050565b600062001d1a82620018ac565b915062001d2783620018ac565b9250827fffffffffffffffffffffffffffffffffffffffffffffffffffffffffffffffff0382111562001d5f5762001d5e62001b0e565b5b828201905092915050565b600060608201905062001d81600083018662001848565b62001d90602083018562001848565b62001d9f604083018462001960565b949350505050565b60008151905062001db8816200187b565b92915050565b60006020828403121562001dd75762001dd662001876565b5b600062001de78482850162001da7565b91505092915050565b7f4e487b7100000000000000000000000000000000000000000000000000000000600052603260045260246000fd5b600062001e2c82620018ac565b91507fffffffffffffffffffffffffffffffffffffffffffffffffffffffffffffffff82141562001e625762001e6162001b0e565b5b60018201905091905056fe608060405234801561001057600080fd5b50604051610b4a380380610b4a833981810160405281019061003291906101fa565b836000806101000a81548173ffffffffffffffffffffffffffffffffffffffff021916908373ffffffffffffffffffffffffffffffffffffffff1602179055506000600160006101000a81548173ffffffffffffffffffffffffffffffffffffffff021916908373ffffffffffffffffffffffffffffffffffffffff160217905550806002819055506001600460006101000a81548160ff02191690831515021790555082600460016101000a81548173ffffffffffffffffffffffffffffffffffffffff021916908373ffffffffffffffffffffffffffffffffffffffff16021790555081600560006101000a81548173ffffffffffffffffffffffffffffffffffffffff021916908373ffffffffffffffffffffffffffffffffffffffff16021790555050505050610261565b600080fd5b600073ffffffffffffffffffffffffffffffffffffffff82169050919050565b600061019182610166565b9050919050565b6101a181610186565b81146101ac57600080fd5b50565b6000815190506101be81610198565b92915050565b6000819050919050565b6101d7816101c4565b81146101e257600080fd5b50565b6000815190506101f4816101ce565b92915050565b6000806000806080858703121561021457610213610161565b5b6000610222878288016101af565b9450506020610233878288016101af565b9350506040610244878288016101af565b9250506060610255878288016101e5565b91505092959194509250565b6108da806102706000396000f3fe608060405234801561001057600080fd5b50600436106100a95760003560e01c80637150d8ae116100715780637150d8ae14610108578063a035b1fe14610126578063a69df4b514610144578063b6b55f251461014e578063d321fe291461016a578063dbd0e1b614610188576100a9565b806308551a53146100ae578063267c4ae4146100cc5780632852b71c146100ea5780633ccfd60b146100f457806343d726d6146100fe575b600080fd5b6100b66101a6565b6040516100c391906105f9565b60405180910390f35b6100d46101cc565b6040516100e1919061062f565b60405180910390f35b6100f26101d8565b005b6100fc610276565b005b61010661032b565b005b6101106103ba565b60405161011d91906105f9565b60405180910390f35b61012e6103de565b60405161013b9190610663565b60405180910390f35b61014c6103e8565b005b610168600480360381019061016391906106af565b610495565b005b610172610584565b60405161017f9190610663565b60405180910390f35b61019061058e565b60405161019d91906105f9565b60405180910390f35b600160009054906101000a900473ffffffffffffffffffffffffffffffffffffffff1681565b60008060025411905090565b600073ffffffffffffffffffffffffffffffffffffffff16600160009054906101000a900473ffffffffffffffffffffffffffffffffffffffff1673ffffffffffffffffffffffffffffffffffffffff161461023357600080fd5b33600160006101000a81548173ffffffffffffffffffffffffffffffffffffffff021916908373ffffffffffffffffffffffffffffffffffffffff160217905550565b60001515600460009054906101000a900460ff1615151461029657600080fd5b600460019054906101000a900473ffffffffffffffffffffffffffffffffffffffff1673ffffffffffffffffffffffffffffffffffffffff16631a76a6ad30326003546040518463ffffffff1660e01b81526004016102f7939291906106dc565b600060405180830381600087803b15801561031157600080fd5b505af1158015610325573d6000803e3d6000fd5b50505050565b600460019054906101000a900473ffffffffffffffffffffffffffffffffffffffff1673ffffffffffffffffffffffffffffffffffffffff16638927a901306040518263ffffffff1660e01b815260040161038691906105f9565b600060405180830381600087803b1580156103a057600080fd5b505af11580156103b4573d6000803e3d6000fd5b50505050565b60008054906101000a900473ffffffffffffffffffffffffffffffffffffffff1681565b6000600354905090565b600560009054906101000a900473ffffffffffffffffffffffffffffffffffffffff1673ffffffffffffffffffffffffffffffffffffffff163373ffffffffffffffffffffffffffffffffffffffff1614610478576040517f08c379a000000000000000000000000000000000000000000000000000000000815260040161046f90610796565b60405180910390fd5b6000600460006101000a81548160ff021916908315150217905550565b6000600460019054906101000a900473ffffffffffffffffffffffffffffffffffffffff1673ffffffffffffffffffffffffffffffffffffffff1663a9059cbb30846040518363ffffffff1660e01b81526004016104f49291906107b6565b6020604051808303816000875af1158015610513573d6000803e3d6000fd5b505050506040513d601f19601f82011682018060405250810190610537919061080b565b905080610579576040517f08c379a000000000000000000000000000000000000000000000000000000000815260040161057090610884565b60405180910390fd5b816003819055505050565b6000600254905090565b6000600160009054906101000a900473ffffffffffffffffffffffffffffffffffffffff16905090565b600073ffffffffffffffffffffffffffffffffffffffff82169050919050565b60006105e3826105b8565b9050919050565b6105f3816105d8565b82525050565b600060208201905061060e60008301846105ea565b92915050565b60008115159050919050565b61062981610614565b82525050565b60006020820190506106446000830184610620565b92915050565b6000819050919050565b61065d8161064a565b82525050565b60006020820190506106786000830184610654565b92915050565b600080fd5b61068c8161064a565b811461069757600080fd5b50565b6000813590506106a981610683565b92915050565b6000602082840312156106c5576106c461067e565b5b60006106d38482850161069a565b91505092915050565b60006060820190506106f160008301866105ea565b6106fe60208301856105ea565b61070b6040830184610654565b949350505050565b600082825260208201905092915050565b7f4f6e6c79207468652043434d20636f6e74726163742063616e2063616c6c207460008201527f686973206d6574686f6400000000000000000000000000000000000000000000602082015250565b6000610780602a83610713565b915061078b82610724565b604082019050919050565b600060208201905081810360008301526107af81610773565b9050919050565b60006040820190506107cb60008301856105ea565b6107d86020830184610654565b9392505050565b6107e881610614565b81146107f357600080fd5b50565b600081519050610805816107df565b92915050565b6000602082840312156108215761082061067e565b5b600061082f848285016107f6565b91505092915050565b7f6661696c656420746f207472616e736665720000000000000000000000000000600082015250565b600061086e601283610713565b915061087982610838565b602082019050919050565b6000602082019050818103600083015261089d81610861565b905091905056fea26469706673582212209a88f16c2fb95739a3b95694e1171c0349958c1383d6a84a9c909f73aa93067a64736f6c634300080c0033a2646970667358221220b25d3f56bf58db2b08d957ddd67117581f2cbcada9db3bcfb7f56ed88420c62664736f6c634300080c0033",
  "immutableReferences": {},
  "source": "// SPDX-License-Identifier: MIT\npragma solidity >=0.4.22 <0.9.0;\n\nimport \"./CarbonCreditToken.sol\";\n\ncontract CarbonCredit {\n\n  address public minter;\n  uint totalCredits;\n  uint year;\n\n  address[] participants;\n\n  mapping (address => uint) public ndcs;\n  mapping (address => uint) public balances; // ITMO balances for each entity\n  mapping (address => Escrow) public bids;\n\n  event Sent(address from, address to, uint amount);\n  error InsufficientBalance(uint requested, uint available);\n  error UnknownAddress(address addr);\n\n  constructor() {\n    minter = msg.sender;\n    // participants.push(msg.sender);\n    year = 2022;\n  }\n\n  function isParticipant(address addr) private view returns (bool) {\n    for (uint i = 0; i < participants.length; i++) {\n      if (participants[i] == addr) {\n        return true;\n      }\n    }\n    return false;\n  }\n\n  function join(address _cct) public {\n    if (!isParticipant(msg.sender)) {\n      participants.push(msg.sender);\n      bids[msg.sender] = new Escrow(msg.sender, _cct, address(this), 0);\n    }\n  }\n\n  function getYear() public view returns (uint) {\n    return year;\n  }\n\n  function getBalance(address addr) public view returns (uint) {\n    return balances[addr];\n  }\n\n  function getTargetNDC(address addr) public view returns (uint) {\n    return ndcs[addr];\n  }\n\n  function setTargetNDC(uint amount) public { // only the tx sender can set their NDC\n    if (!isParticipant(msg.sender)) {\n      revert UnknownAddress(msg.sender);\n    }\n    ndcs[msg.sender] = amount;\n  }\n\n  function issue(address receiver, uint amount) public {\n    if (!isParticipant(receiver)) {\n      revert UnknownAddress(receiver);\n    }\n    require(msg.sender == minter); // only the smart contract minter can issue ITMOs\n\n    // TODO: query Chainlink oracle to verify mitigation claims\n\n    balances[receiver] += amount;\n    totalCredits += amount;\n  }\n\n  function getBid(address addr) public view returns (uint256, uint256, address) {\n    if (!isParticipant(addr)) {\n      revert UnknownAddress(addr);\n    }\n    uint size = bids[addr].getAmount();\n    uint price = bids[addr].price();\n    address seller = bids[addr].getSeller();\n    return (size, price, seller);\n  }\n\n  function requestToBuy(address _cct, uint amount, uint price) public returns (address) {\n    if (!isParticipant(msg.sender)) {\n      revert UnknownAddress(msg.sender);\n    }\n    if (bids[msg.sender].exists()) {\n      return address(bids[msg.sender]);\n    }\n\n    Escrow esc = new Escrow(msg.sender, _cct, address(this), amount);\n    esc.deposit(price);\n    bids[msg.sender] = esc; // store request to buy ITMOs\n    return address(esc);\n  }\n\n  function fillRequest(address receiver) public {\n    if (!isParticipant(msg.sender)) { \n      revert UnknownAddress(msg.sender);\n    }\n    if (!isParticipant(receiver)) { \n      revert UnknownAddress(receiver);\n    }\n    bids[receiver].accept();\n\n    uint amount = bids[receiver].getAmount();\n    if (amount > balances[msg.sender]) {\n      revert InsufficientBalance(amount, balances[msg.sender]);\n    }\n\n    balances[msg.sender] -= amount;\n    balances[receiver] += amount;\n    emit Sent(msg.sender, receiver, amount);    \n\n    bids[receiver].unlock();\n    bids[receiver].withdraw();\n    bids[receiver].close();\n    delete bids[receiver];\n  }\n\n  function sendCredits(address receiver, uint amount) public {\n    if (amount > balances[msg.sender]) {\n      revert InsufficientBalance(amount, balances[msg.sender]);\n    }\n\n    balances[msg.sender] -= amount;\n    balances[receiver] += amount;\n    emit Sent(msg.sender, receiver, amount);\n  }\n\n\n  function consume(address consumer, uint amount) public {\n    // consume() can only be called by the owner of the used credits\n    // or the organization managing the carbon credit contract\n    require(msg.sender == consumer || msg.sender == minter);\n    if (amount > balances[consumer]) {\n      revert InsufficientBalance(amount, balances[consumer]);\n    }\n    balances[consumer] -= amount;\n  }\n}\n",
  "sourcePath": "/Users/brianli/bc-climate/contracts/CarbonCreditMarket.sol",
  "compiler": {
    "name": "solc",
    "version": "0.8.12+commit.f00d7308.Emscripten.clang"
  },
  "schemaVersion": "3.4.6",
  "updatedAt": "2022-05-06T15:46:30.092Z",
  "networkType": "ethereum",
  "devdoc": {
    "kind": "dev",
    "methods": {},
    "version": 1
  },
  "userdoc": {
    "kind": "user",
    "methods": {},
    "version": 1
  }
}