{
  "contractName": "CarbonCreditToken",
  "abi": [
    {
      "inputs": [
        {
          "internalType": "string",
          "name": "new_name",
          "type": "string"
        },
        {
          "internalType": "string",
          "name": "new_symbol",
          "type": "string"
        },
        {
          "internalType": "uint8",
          "name": "new_decimals",
          "type": "uint8"
        }
      ],
      "stateMutability": "nonpayable",
      "type": "constructor"
    },
    {
      "anonymous": false,
      "inputs": [
        {
          "indexed": true,
          "internalType": "address",
          "name": "from",
          "type": "address"
        },
        {
          "indexed": true,
          "internalType": "address",
          "name": "to",
          "type": "address"
        },
        {
          "indexed": false,
          "internalType": "uint256",
          "name": "value",
          "type": "uint256"
        }
      ],
      "name": "Transfer",
      "type": "event"
    },
    {
      "anonymous": false,
      "inputs": [
        {
          "indexed": false,
          "internalType": "bytes",
          "name": "data",
          "type": "bytes"
        }
      ],
      "name": "TransferData",
      "type": "event"
    },
    {
      "inputs": [
        {
          "internalType": "address",
          "name": "",
          "type": "address"
        }
      ],
      "name": "balances",
      "outputs": [
        {
          "internalType": "uint256",
          "name": "",
          "type": "uint256"
        }
      ],
      "stateMutability": "view",
      "type": "function",
      "constant": true
    },
    {
      "inputs": [],
      "name": "minter",
      "outputs": [
        {
          "internalType": "address",
          "name": "",
          "type": "address"
        }
      ],
      "stateMutability": "view",
      "type": "function",
      "constant": true
    },
    {
      "inputs": [],
      "name": "standard",
      "outputs": [
        {
          "internalType": "string",
          "name": "",
          "type": "string"
        }
      ],
      "stateMutability": "pure",
      "type": "function",
      "constant": true
    },
    {
      "inputs": [],
      "name": "name",
      "outputs": [
        {
          "internalType": "string",
          "name": "",
          "type": "string"
        }
      ],
      "stateMutability": "view",
      "type": "function",
      "constant": true
    },
    {
      "inputs": [],
      "name": "symbol",
      "outputs": [
        {
          "internalType": "string",
          "name": "",
          "type": "string"
        }
      ],
      "stateMutability": "view",
      "type": "function",
      "constant": true
    },
    {
      "inputs": [],
      "name": "decimals",
      "outputs": [
        {
          "internalType": "uint8",
          "name": "",
          "type": "uint8"
        }
      ],
      "stateMutability": "view",
      "type": "function",
      "constant": true
    },
    {
      "inputs": [],
      "name": "totalSupply",
      "outputs": [
        {
          "internalType": "uint256",
          "name": "",
          "type": "uint256"
        }
      ],
      "stateMutability": "view",
      "type": "function",
      "constant": true
    },
    {
      "inputs": [
        {
          "internalType": "address",
          "name": "_owner",
          "type": "address"
        }
      ],
      "name": "balanceOf",
      "outputs": [
        {
          "internalType": "uint256",
          "name": "",
          "type": "uint256"
        }
      ],
      "stateMutability": "view",
      "type": "function",
      "constant": true
    },
    {
      "inputs": [
        {
          "internalType": "address",
          "name": "_to",
          "type": "address"
        },
        {
          "internalType": "uint256",
          "name": "_value",
          "type": "uint256"
        }
      ],
      "name": "transfer",
      "outputs": [
        {
          "internalType": "bool",
          "name": "success",
          "type": "bool"
        }
      ],
      "stateMutability": "nonpayable",
      "type": "function"
    },
    {
      "inputs": [
        {
          "internalType": "address",
          "name": "_to",
          "type": "address"
        },
        {
          "internalType": "uint256",
          "name": "_value",
          "type": "uint256"
        },
        {
          "internalType": "bytes",
          "name": "_data",
          "type": "bytes"
        }
      ],
      "name": "transfer",
      "outputs": [
        {
          "internalType": "bool",
          "name": "success",
          "type": "bool"
        }
      ],
      "stateMutability": "nonpayable",
      "type": "function"
    },
    {
      "inputs": [
        {
          "internalType": "address",
          "name": "_esc",
          "type": "address"
        },
        {
          "internalType": "address",
          "name": "_to",
          "type": "address"
        },
        {
          "internalType": "uint256",
          "name": "_value",
          "type": "uint256"
        }
      ],
      "name": "transferEscrow",
      "outputs": [],
      "stateMutability": "nonpayable",
      "type": "function"
    },
    {
      "inputs": [
        {
          "internalType": "address",
          "name": "_esc",
          "type": "address"
        }
      ],
      "name": "deleteEscrow",
      "outputs": [],
      "stateMutability": "nonpayable",
      "type": "function"
    }
  ],
  "bytecode": "0x60806040523480156200001157600080fd5b5060405162001494380380620014948339818101604052810190620000379190620003ca565b82600090805190602001906200004f9291906200013f565b508160019080519060200190620000689291906200013f565b5080600260006101000a81548160ff021916908360ff1602179055506103e860038190555033600560006101000a81548173ffffffffffffffffffffffffffffffffffffffff021916908373ffffffffffffffffffffffffffffffffffffffff16021790555060035460046000600560009054906101000a900473ffffffffffffffffffffffffffffffffffffffff1673ffffffffffffffffffffffffffffffffffffffff1673ffffffffffffffffffffffffffffffffffffffff16815260200190815260200160002081905550505050620004c9565b8280546200014d9062000493565b90600052602060002090601f016020900481019282620001715760008555620001bd565b82601f106200018c57805160ff1916838001178555620001bd565b82800160010185558215620001bd579182015b82811115620001bc5782518255916020019190600101906200019f565b5b509050620001cc9190620001d0565b5090565b5b80821115620001eb576000816000905550600101620001d1565b5090565b6000604051905090565b600080fd5b600080fd5b600080fd5b600080fd5b6000601f19601f8301169050919050565b7f4e487b7100000000000000000000000000000000000000000000000000000000600052604160045260246000fd5b62000258826200020d565b810181811067ffffffffffffffff821117156200027a57620002796200021e565b5b80604052505050565b60006200028f620001ef565b90506200029d82826200024d565b919050565b600067ffffffffffffffff821115620002c057620002bf6200021e565b5b620002cb826200020d565b9050602081019050919050565b60005b83811015620002f8578082015181840152602081019050620002db565b8381111562000308576000848401525b50505050565b6000620003256200031f84620002a2565b62000283565b90508281526020810184848401111562000344576200034362000208565b5b62000351848285620002d8565b509392505050565b600082601f83011262000371576200037062000203565b5b8151620003838482602086016200030e565b91505092915050565b600060ff82169050919050565b620003a4816200038c565b8114620003b057600080fd5b50565b600081519050620003c48162000399565b92915050565b600080600060608486031215620003e657620003e5620001f9565b5b600084015167ffffffffffffffff811115620004075762000406620001fe565b5b620004158682870162000359565b935050602084015167ffffffffffffffff811115620004395762000438620001fe565b5b620004478682870162000359565b92505060406200045a86828701620003b3565b9150509250925092565b7f4e487b7100000000000000000000000000000000000000000000000000000000600052602260045260246000fd5b60006002820490506001821680620004ac57607f821691505b60208210811415620004c357620004c262000464565b5b50919050565b610fbb80620004d96000396000f3fe608060405234801561001057600080fd5b50600436106100b45760003560e01c80635a3b7e42116100715780635a3b7e421461017d57806370a082311461019b5780638927a901146101cb57806395d89b41146101e7578063a9059cbb14610205578063be45fd6214610235576100b4565b806306fdde03146100b957806307546172146100d757806318160ddd146100f55780631a76a6ad1461011357806327e235e31461012f578063313ce5671461015f575b600080fd5b6100c1610265565b6040516100ce9190610a7a565b60405180910390f35b6100df6102f7565b6040516100ec9190610add565b60405180910390f35b6100fd61031d565b60405161010a9190610b11565b60405180910390f35b61012d60048036038101906101289190610b8e565b610327565b005b61014960048036038101906101449190610be1565b6104ad565b6040516101569190610b11565b60405180910390f35b6101676104c5565b6040516101749190610c2a565b60405180910390f35b6101856104dc565b6040516101929190610a7a565b60405180910390f35b6101b560048036038101906101b09190610be1565b610519565b6040516101c29190610b11565b60405180910390f35b6101e560048036038101906101e09190610be1565b610562565b005b6101ef6105a8565b6040516101fc9190610a7a565b60405180910390f35b61021f600480360381019061021a9190610c45565b61063a565b60405161022c9190610ca0565b60405180910390f35b61024f600480360381019061024a9190610d20565b610819565b60405161025c9190610ca0565b60405180910390f35b60606000805461027490610dc3565b80601f01602080910402602001604051908101604052809291908181526020018280546102a090610dc3565b80156102ed5780601f106102c2576101008083540402835291602001916102ed565b820191906000526020600020905b8154815290600101906020018083116102d057829003601f168201915b5050505050905090565b600560009054906101000a900473ffffffffffffffffffffffffffffffffffffffff1681565b6000600354905090565b80600460008573ffffffffffffffffffffffffffffffffffffffff1673ffffffffffffffffffffffffffffffffffffffff168152602001908152602001600020546103729190610e24565b600460008573ffffffffffffffffffffffffffffffffffffffff1673ffffffffffffffffffffffffffffffffffffffff1681526020019081526020016000208190555080600460008473ffffffffffffffffffffffffffffffffffffffff1673ffffffffffffffffffffffffffffffffffffffff168152602001908152602001600020546104009190610e58565b600460008473ffffffffffffffffffffffffffffffffffffffff1673ffffffffffffffffffffffffffffffffffffffff168152602001908152602001600020819055508173ffffffffffffffffffffffffffffffffffffffff168373ffffffffffffffffffffffffffffffffffffffff167fddf252ad1be2c89b69c2b068fc378daa952ba7f163c4a11628f55a4df523b3ef836040516104a09190610b11565b60405180910390a3505050565b60046020528060005260406000206000915090505481565b6000600260009054906101000a900460ff16905090565b60606040518060400160405280600681526020017f6572633232330000000000000000000000000000000000000000000000000000815250905090565b6000600460008373ffffffffffffffffffffffffffffffffffffffff1673ffffffffffffffffffffffffffffffffffffffff168152602001908152602001600020549050919050565b600460008273ffffffffffffffffffffffffffffffffffffffff1673ffffffffffffffffffffffffffffffffffffffff1681526020019081526020016000206000905550565b6060600180546105b790610dc3565b80601f01602080910402602001604051908101604052809291908181526020018280546105e390610dc3565b80156106305780601f1061060557610100808354040283529160200191610630565b820191906000526020600020905b81548152906001019060200180831161061357829003601f168201915b5050505050905090565b6000806040518060400160405280600481526020016000815250905082600460003273ffffffffffffffffffffffffffffffffffffffff1673ffffffffffffffffffffffffffffffffffffffff168152602001908152602001600020546106a19190610e24565b600460003273ffffffffffffffffffffffffffffffffffffffff1673ffffffffffffffffffffffffffffffffffffffff1681526020019081526020016000208190555082600460008673ffffffffffffffffffffffffffffffffffffffff1673ffffffffffffffffffffffffffffffffffffffff1681526020019081526020016000205461072f9190610e58565b600460008673ffffffffffffffffffffffffffffffffffffffff1673ffffffffffffffffffffffffffffffffffffffff168152602001908152602001600020819055508373ffffffffffffffffffffffffffffffffffffffff163273ffffffffffffffffffffffffffffffffffffffff167fddf252ad1be2c89b69c2b068fc378daa952ba7f163c4a11628f55a4df523b3ef856040516107cf9190610b11565b60405180910390a37f3ba9136826ac751de05d770d8d34fa4440ada49a5fb0e9aa1678aece66dad976816040516108069190610f03565b60405180910390a1600191505092915050565b600083600460003373ffffffffffffffffffffffffffffffffffffffff1673ffffffffffffffffffffffffffffffffffffffff168152602001908152602001600020546108669190610e24565b600460003373ffffffffffffffffffffffffffffffffffffffff1673ffffffffffffffffffffffffffffffffffffffff1681526020019081526020016000208190555083600460008773ffffffffffffffffffffffffffffffffffffffff1673ffffffffffffffffffffffffffffffffffffffff168152602001908152602001600020546108f49190610e58565b600460008773ffffffffffffffffffffffffffffffffffffffff1673ffffffffffffffffffffffffffffffffffffffff168152602001908152602001600020819055508473ffffffffffffffffffffffffffffffffffffffff163373ffffffffffffffffffffffffffffffffffffffff167fddf252ad1be2c89b69c2b068fc378daa952ba7f163c4a11628f55a4df523b3ef866040516109949190610b11565b60405180910390a37f3ba9136826ac751de05d770d8d34fa4440ada49a5fb0e9aa1678aece66dad97683836040516109cd929190610f61565b60405180910390a160019050949350505050565b600081519050919050565b600082825260208201905092915050565b60005b83811015610a1b578082015181840152602081019050610a00565b83811115610a2a576000848401525b50505050565b6000601f19601f8301169050919050565b6000610a4c826109e1565b610a5681856109ec565b9350610a668185602086016109fd565b610a6f81610a30565b840191505092915050565b60006020820190508181036000830152610a948184610a41565b905092915050565b600073ffffffffffffffffffffffffffffffffffffffff82169050919050565b6000610ac782610a9c565b9050919050565b610ad781610abc565b82525050565b6000602082019050610af26000830184610ace565b92915050565b6000819050919050565b610b0b81610af8565b82525050565b6000602082019050610b266000830184610b02565b92915050565b600080fd5b600080fd5b610b3f81610abc565b8114610b4a57600080fd5b50565b600081359050610b5c81610b36565b92915050565b610b6b81610af8565b8114610b7657600080fd5b50565b600081359050610b8881610b62565b92915050565b600080600060608486031215610ba757610ba6610b2c565b5b6000610bb586828701610b4d565b9350506020610bc686828701610b4d565b9250506040610bd786828701610b79565b9150509250925092565b600060208284031215610bf757610bf6610b2c565b5b6000610c0584828501610b4d565b91505092915050565b600060ff82169050919050565b610c2481610c0e565b82525050565b6000602082019050610c3f6000830184610c1b565b92915050565b60008060408385031215610c5c57610c5b610b2c565b5b6000610c6a85828601610b4d565b9250506020610c7b85828601610b79565b9150509250929050565b60008115159050919050565b610c9a81610c85565b82525050565b6000602082019050610cb56000830184610c91565b92915050565b600080fd5b600080fd5b600080fd5b60008083601f840112610ce057610cdf610cbb565b5b8235905067ffffffffffffffff811115610cfd57610cfc610cc0565b5b602083019150836001820283011115610d1957610d18610cc5565b5b9250929050565b60008060008060608587031215610d3a57610d39610b2c565b5b6000610d4887828801610b4d565b9450506020610d5987828801610b79565b935050604085013567ffffffffffffffff811115610d7a57610d79610b31565b5b610d8687828801610cca565b925092505092959194509250565b7f4e487b7100000000000000000000000000000000000000000000000000000000600052602260045260246000fd5b60006002820490506001821680610ddb57607f821691505b60208210811415610def57610dee610d94565b5b50919050565b7f4e487b7100000000000000000000000000000000000000000000000000000000600052601160045260246000fd5b6000610e2f82610af8565b9150610e3a83610af8565b925082821015610e4d57610e4c610df5565b5b828203905092915050565b6000610e6382610af8565b9150610e6e83610af8565b9250827fffffffffffffffffffffffffffffffffffffffffffffffffffffffffffffffff03821115610ea357610ea2610df5565b5b828201905092915050565b600081519050919050565b600082825260208201905092915050565b6000610ed582610eae565b610edf8185610eb9565b9350610eef8185602086016109fd565b610ef881610a30565b840191505092915050565b60006020820190508181036000830152610f1d8184610eca565b905092915050565b82818337600083830152505050565b6000610f408385610eb9565b9350610f4d838584610f25565b610f5683610a30565b840190509392505050565b60006020820190508181036000830152610f7c818486610f34565b9050939250505056fea264697066735822122041bed68e59b117bb84c7050048758e5130c4258e9f0de20858dad2242424d33564736f6c634300080c0033",
  "immutableReferences": {},
  "source": "// SPDX-License-Identifier: MIT\npragma solidity >=0.4.22 <0.9.0;\n\nabstract contract IERC223 {\n    \n    function name()        public view virtual returns (string memory);\n    function symbol()      public view virtual returns (string memory);\n    function standard()    public view virtual returns (string memory);\n    function decimals()    public view virtual returns (uint8);\n    function totalSupply() public view virtual returns (uint256);\n    \n    /**\n     * @dev Returns the balance of the `who` address.\n     */\n    function balanceOf(address who) public virtual view returns (uint);\n        \n    /**\n     * @dev Transfers `value` tokens from `msg.sender` to `to` address\n     * and returns `true` on success.\n     */\n    function transfer(address to, uint value) public virtual returns (bool success);\n        \n    /**\n     * @dev Transfers `value` tokens from `msg.sender` to `to` address with `data` parameter\n     * and returns `true` on success.\n     */\n    function transfer(address to, uint value, bytes calldata data) public virtual returns (bool success);\n     \n     /**\n     * @dev Event that is fired on successful transfer.\n     */\n    event Transfer(address indexed from, address indexed to, uint value);\n    \n     /**\n     * @dev Additional event that is fired on successful transfer and logs transfer metadata,\n     *      this event is implemented to keep Transfer event compatible with ERC20.\n     */\n    event TransferData(bytes data);\n}\n\ncontract CarbonCreditToken is IERC223 {\n\n    string private _name;\n    string private _symbol;\n    uint8 private _decimals;\n    uint256 private _totalSupply;\n\n    mapping(address => uint256) public balances;\n\n    address public minter;\n\n    constructor(string memory new_name, string memory new_symbol, uint8 new_decimals) {\n        _name = new_name;\n        _symbol = new_symbol;\n        _decimals = new_decimals;\n        _totalSupply = 1000;\n        minter = msg.sender;\n        balances[minter] = _totalSupply;\n    }\n\n    function standard() public pure override returns (string memory) {\n        return \"erc223\";\n    }\n\n    function name() public view override returns (string memory) {\n        return _name;\n    }\n\n    function symbol() public view override returns (string memory) {\n        return _symbol;\n    }\n\n    function decimals() public view override returns (uint8) {\n        return _decimals;\n    }\n\n    function totalSupply() public view override returns (uint256) {\n        return _totalSupply;\n    }\n\n    function balanceOf(address _owner) public view override returns (uint256) {\n        return balances[_owner];\n    }\n\n    function transfer(address _to, uint _value, bytes calldata _data) public override returns (bool success) {\n        balances[msg.sender] = balances[msg.sender] - _value;\n        balances[_to] = balances[_to] + _value;\n\n        emit Transfer(msg.sender, _to, _value);\n        emit TransferData(_data);\n        return true;\n    }\n\n    function transfer(address _to, uint _value) public override returns (bool success) {\n        bytes memory _empty = hex\"00000000\";\n        balances[tx.origin] = balances[tx.origin] - _value;\n        balances[_to] = balances[_to] + _value;\n        emit Transfer(tx.origin, _to, _value);\n        emit TransferData(_empty);\n        return true;\n    }\n\n    function transferEscrow(address _esc, address _to, uint _value) public {\n        balances[_esc] = balances[_esc] - _value;\n        balances[_to] = balances[_to] + _value;\n\n        emit Transfer(_esc, _to, _value);\n    }\n\n    function deleteEscrow(address _esc) public {\n        delete balances[_esc];\n    }\n}\n\ncontract Escrow {\n\n    // enum Status { EMPTY, WAITING_ACCEPT, WAITING_PAYMENT, COMPLETE }\n    // Status status;\n\n    address public buyer;\n    address public seller;\n    uint itmo_amt;\n    uint _deposit;\n    bool locked;\n    \n    // bool exists;\n\n    CarbonCreditToken cct;\n\n    address ccm_addr;\n\n    modifier onlyBuyer() {\n        require(msg.sender == buyer, \"Only buyer can call this method\");\n        _;\n    }\n\n    modifier onlySeller() {\n        require(msg.sender == seller, \"Only seller can call this method\");\n        _;\n    }\n\n    modifier onlyCCM() {\n        require(msg.sender == ccm_addr, \"Only the CCM contract can call this method\");\n        _;\n    }\n\n    constructor(address _buyer, address _cct, address _ccm, uint amount) {\n        buyer = _buyer;\n        seller = address(0);\n        itmo_amt = amount;\n        locked = true;\n        cct = CarbonCreditToken(_cct);\n        ccm_addr = _ccm;\n    }\n\n    function exists() public view returns (bool) {\n        return itmo_amt > 0;\n    }\n\n    function getAmount() public view returns (uint) {\n        return itmo_amt;\n    }\n\n    function price() public view returns (uint) {\n        return _deposit;\n    }\n\n    function getSeller() public view returns (address) {\n        return seller;\n    }\n\n    function accept() public {\n        require(seller == address(0)); // require that no one accepted the contract yet\n        seller = msg.sender;\n    }\n\n    // this function can only be called by the CarbonCreditMarket smart contract\n    // after funds have been sent correctly. Then the account can be unlocked\n    function unlock() onlyCCM external {\n        locked = false;\n    }\n\n    function withdraw() external {\n        require(locked == false);\n        // TODO: call CarbonCreditToken API to transfer funds from escrow to msg.sender balance\n        cct.transferEscrow(address(this), tx.origin, _deposit);\n    }\n\n    // deposit sets the price to however much is deposited\n    function deposit(uint _price) external {\n        bool success = cct.transfer(address(this), _price);\n        if (!success) {\n            revert(\"failed to transfer\");\n        }\n        _deposit = _price;\n    }\n\n    function close() public {\n        cct.deleteEscrow(address(this));\n    }\n\n}",
  "sourcePath": "/Users/brianli/bc-climate/contracts/CarbonCreditToken.sol",
  "compiler": {
    "name": "solc",
    "version": "0.8.12+commit.f00d7308.Emscripten.clang"
  },
  "schemaVersion": "3.4.6",
  "updatedAt": "2022-05-06T15:46:30.122Z",
  "networkType": "ethereum",
  "devdoc": {
    "kind": "dev",
    "methods": {},
    "version": 1
  },
  "userdoc": {
    "kind": "user",
    "methods": {},
    "version": 1
  }
}