{
  "contractName": "Escrow",
  "abi": [
    {
      "inputs": [
        {
          "internalType": "address",
          "name": "_buyer",
          "type": "address"
        },
        {
          "internalType": "address",
          "name": "_cct",
          "type": "address"
        },
        {
          "internalType": "address",
          "name": "_ccm",
          "type": "address"
        },
        {
          "internalType": "uint256",
          "name": "amount",
          "type": "uint256"
        }
      ],
      "stateMutability": "nonpayable",
      "type": "constructor"
    },
    {
      "inputs": [],
      "name": "buyer",
      "outputs": [
        {
          "internalType": "address",
          "name": "",
          "type": "address"
        }
      ],
      "stateMutability": "view",
      "type": "function"
    },
    {
      "inputs": [],
      "name": "seller",
      "outputs": [
        {
          "internalType": "address",
          "name": "",
          "type": "address"
        }
      ],
      "stateMutability": "view",
      "type": "function"
    },
    {
      "inputs": [],
      "name": "exists",
      "outputs": [
        {
          "internalType": "bool",
          "name": "",
          "type": "bool"
        }
      ],
      "stateMutability": "view",
      "type": "function"
    },
    {
      "inputs": [],
      "name": "getAmount",
      "outputs": [
        {
          "internalType": "uint256",
          "name": "",
          "type": "uint256"
        }
      ],
      "stateMutability": "view",
      "type": "function"
    },
    {
      "inputs": [],
      "name": "price",
      "outputs": [
        {
          "internalType": "uint256",
          "name": "",
          "type": "uint256"
        }
      ],
      "stateMutability": "view",
      "type": "function"
    },
    {
      "inputs": [],
      "name": "getSeller",
      "outputs": [
        {
          "internalType": "address",
          "name": "",
          "type": "address"
        }
      ],
      "stateMutability": "view",
      "type": "function"
    },
    {
      "inputs": [],
      "name": "accept",
      "outputs": [],
      "stateMutability": "nonpayable",
      "type": "function"
    },
    {
      "inputs": [],
      "name": "unlock",
      "outputs": [],
      "stateMutability": "nonpayable",
      "type": "function"
    },
    {
      "inputs": [],
      "name": "withdraw",
      "outputs": [],
      "stateMutability": "nonpayable",
      "type": "function"
    },
    {
      "inputs": [
        {
          "internalType": "uint256",
          "name": "_price",
          "type": "uint256"
        }
      ],
      "name": "deposit",
      "outputs": [],
      "stateMutability": "nonpayable",
      "type": "function"
    },
    {
      "inputs": [],
      "name": "close",
      "outputs": [],
      "stateMutability": "nonpayable",
      "type": "function"
    }
  ],
  "bytecode": "0x608060405234801561001057600080fd5b50604051610b4a380380610b4a833981810160405281019061003291906101fa565b836000806101000a81548173ffffffffffffffffffffffffffffffffffffffff021916908373ffffffffffffffffffffffffffffffffffffffff1602179055506000600160006101000a81548173ffffffffffffffffffffffffffffffffffffffff021916908373ffffffffffffffffffffffffffffffffffffffff160217905550806002819055506001600460006101000a81548160ff02191690831515021790555082600460016101000a81548173ffffffffffffffffffffffffffffffffffffffff021916908373ffffffffffffffffffffffffffffffffffffffff16021790555081600560006101000a81548173ffffffffffffffffffffffffffffffffffffffff021916908373ffffffffffffffffffffffffffffffffffffffff16021790555050505050610261565b600080fd5b600073ffffffffffffffffffffffffffffffffffffffff82169050919050565b600061019182610166565b9050919050565b6101a181610186565b81146101ac57600080fd5b50565b6000815190506101be81610198565b92915050565b6000819050919050565b6101d7816101c4565b81146101e257600080fd5b50565b6000815190506101f4816101ce565b92915050565b6000806000806080858703121561021457610213610161565b5b6000610222878288016101af565b9450506020610233878288016101af565b9350506040610244878288016101af565b9250506060610255878288016101e5565b91505092959194509250565b6108da806102706000396000f3fe608060405234801561001057600080fd5b50600436106100a95760003560e01c80637150d8ae116100715780637150d8ae14610108578063a035b1fe14610126578063a69df4b514610144578063b6b55f251461014e578063d321fe291461016a578063dbd0e1b614610188576100a9565b806308551a53146100ae578063267c4ae4146100cc5780632852b71c146100ea5780633ccfd60b146100f457806343d726d6146100fe575b600080fd5b6100b66101a6565b6040516100c391906105f9565b60405180910390f35b6100d46101cc565b6040516100e1919061062f565b60405180910390f35b6100f26101d8565b005b6100fc610276565b005b61010661032b565b005b6101106103ba565b60405161011d91906105f9565b60405180910390f35b61012e6103de565b60405161013b9190610663565b60405180910390f35b61014c6103e8565b005b610168600480360381019061016391906106af565b610495565b005b610172610584565b60405161017f9190610663565b60405180910390f35b61019061058e565b60405161019d91906105f9565b60405180910390f35b600160009054906101000a900473ffffffffffffffffffffffffffffffffffffffff1681565b60008060025411905090565b600073ffffffffffffffffffffffffffffffffffffffff16600160009054906101000a900473ffffffffffffffffffffffffffffffffffffffff1673ffffffffffffffffffffffffffffffffffffffff161461023357600080fd5b33600160006101000a81548173ffffffffffffffffffffffffffffffffffffffff021916908373ffffffffffffffffffffffffffffffffffffffff160217905550565b60001515600460009054906101000a900460ff1615151461029657600080fd5b600460019054906101000a900473ffffffffffffffffffffffffffffffffffffffff1673ffffffffffffffffffffffffffffffffffffffff16631a76a6ad30326003546040518463ffffffff1660e01b81526004016102f7939291906106dc565b600060405180830381600087803b15801561031157600080fd5b505af1158015610325573d6000803e3d6000fd5b50505050565b600460019054906101000a900473ffffffffffffffffffffffffffffffffffffffff1673ffffffffffffffffffffffffffffffffffffffff16638927a901306040518263ffffffff1660e01b815260040161038691906105f9565b600060405180830381600087803b1580156103a057600080fd5b505af11580156103b4573d6000803e3d6000fd5b50505050565b60008054906101000a900473ffffffffffffffffffffffffffffffffffffffff1681565b6000600354905090565b600560009054906101000a900473ffffffffffffffffffffffffffffffffffffffff1673ffffffffffffffffffffffffffffffffffffffff163373ffffffffffffffffffffffffffffffffffffffff1614610478576040517f08c379a000000000000000000000000000000000000000000000000000000000815260040161046f90610796565b60405180910390fd5b6000600460006101000a81548160ff021916908315150217905550565b6000600460019054906101000a900473ffffffffffffffffffffffffffffffffffffffff1673ffffffffffffffffffffffffffffffffffffffff1663a9059cbb30846040518363ffffffff1660e01b81526004016104f49291906107b6565b6020604051808303816000875af1158015610513573d6000803e3d6000fd5b505050506040513d601f19601f82011682018060405250810190610537919061080b565b905080610579576040517f08c379a000000000000000000000000000000000000000000000000000000000815260040161057090610884565b60405180910390fd5b816003819055505050565b6000600254905090565b6000600160009054906101000a900473ffffffffffffffffffffffffffffffffffffffff16905090565b600073ffffffffffffffffffffffffffffffffffffffff82169050919050565b60006105e3826105b8565b9050919050565b6105f3816105d8565b82525050565b600060208201905061060e60008301846105ea565b92915050565b60008115159050919050565b61062981610614565b82525050565b60006020820190506106446000830184610620565b92915050565b6000819050919050565b61065d8161064a565b82525050565b60006020820190506106786000830184610654565b92915050565b600080fd5b61068c8161064a565b811461069757600080fd5b50565b6000813590506106a981610683565b92915050565b6000602082840312156106c5576106c461067e565b5b60006106d38482850161069a565b91505092915050565b60006060820190506106f160008301866105ea565b6106fe60208301856105ea565b61070b6040830184610654565b949350505050565b600082825260208201905092915050565b7f4f6e6c79207468652043434d20636f6e74726163742063616e2063616c6c207460008201527f686973206d6574686f6400000000000000000000000000000000000000000000602082015250565b6000610780602a83610713565b915061078b82610724565b604082019050919050565b600060208201905081810360008301526107af81610773565b9050919050565b60006040820190506107cb60008301856105ea565b6107d86020830184610654565b9392505050565b6107e881610614565b81146107f357600080fd5b50565b600081519050610805816107df565b92915050565b6000602082840312156108215761082061067e565b5b600061082f848285016107f6565b91505092915050565b7f6661696c656420746f207472616e736665720000000000000000000000000000600082015250565b600061086e601283610713565b915061087982610838565b602082019050919050565b6000602082019050818103600083015261089d81610861565b905091905056fea26469706673582212209a88f16c2fb95739a3b95694e1171c0349958c1383d6a84a9c909f73aa93067a64736f6c634300080c0033",
  "immutableReferences": {},
  "source": "// SPDX-License-Identifier: MIT\npragma solidity >=0.4.22 <0.9.0;\n\nabstract contract IERC223 {\n    \n    function name()        public view virtual returns (string memory);\n    function symbol()      public view virtual returns (string memory);\n    function standard()    public view virtual returns (string memory);\n    function decimals()    public view virtual returns (uint8);\n    function totalSupply() public view virtual returns (uint256);\n    \n    /**\n     * @dev Returns the balance of the `who` address.\n     */\n    function balanceOf(address who) public virtual view returns (uint);\n        \n    /**\n     * @dev Transfers `value` tokens from `msg.sender` to `to` address\n     * and returns `true` on success.\n     */\n    function transfer(address to, uint value) public virtual returns (bool success);\n        \n    /**\n     * @dev Transfers `value` tokens from `msg.sender` to `to` address with `data` parameter\n     * and returns `true` on success.\n     */\n    function transfer(address to, uint value, bytes calldata data) public virtual returns (bool success);\n     \n     /**\n     * @dev Event that is fired on successful transfer.\n     */\n    event Transfer(address indexed from, address indexed to, uint value);\n    \n     /**\n     * @dev Additional event that is fired on successful transfer and logs transfer metadata,\n     *      this event is implemented to keep Transfer event compatible with ERC20.\n     */\n    event TransferData(bytes data);\n}\n\ncontract CarbonCreditToken is IERC223 {\n\n    string private _name;\n    string private _symbol;\n    uint8 private _decimals;\n    uint256 private _totalSupply;\n\n    mapping(address => uint256) public balances;\n\n    address public minter;\n\n    constructor(string memory new_name, string memory new_symbol, uint8 new_decimals) {\n        _name = new_name;\n        _symbol = new_symbol;\n        _decimals = new_decimals;\n        _totalSupply = 1000;\n        minter = msg.sender;\n        balances[minter] = _totalSupply;\n    }\n\n    function standard() public pure override returns (string memory) {\n        return \"erc223\";\n    }\n\n    function name() public view override returns (string memory) {\n        return _name;\n    }\n\n    function symbol() public view override returns (string memory) {\n        return _symbol;\n    }\n\n    function decimals() public view override returns (uint8) {\n        return _decimals;\n    }\n\n    function totalSupply() public view override returns (uint256) {\n        return _totalSupply;\n    }\n\n    function balanceOf(address _owner) public view override returns (uint256) {\n        return balances[_owner];\n    }\n\n    function transfer(address _to, uint _value, bytes calldata _data) public override returns (bool success) {\n        balances[msg.sender] = balances[msg.sender] - _value;\n        balances[_to] = balances[_to] + _value;\n\n        emit Transfer(msg.sender, _to, _value);\n        emit TransferData(_data);\n        return true;\n    }\n\n    function transfer(address _to, uint _value) public override returns (bool success) {\n        bytes memory _empty = hex\"00000000\";\n        balances[tx.origin] = balances[tx.origin] - _value;\n        balances[_to] = balances[_to] + _value;\n        emit Transfer(tx.origin, _to, _value);\n        emit TransferData(_empty);\n        return true;\n    }\n\n    function transferEscrow(address _esc, address _to, uint _value) public {\n        balances[_esc] = balances[_esc] - _value;\n        balances[_to] = balances[_to] + _value;\n\n        emit Transfer(_esc, _to, _value);\n    }\n\n    function deleteEscrow(address _esc) public {\n        delete balances[_esc];\n    }\n}\n\ncontract Escrow {\n\n    // enum Status { EMPTY, WAITING_ACCEPT, WAITING_PAYMENT, COMPLETE }\n    // Status status;\n\n    address public buyer;\n    address public seller;\n    uint itmo_amt;\n    uint _deposit;\n    bool locked;\n    \n    // bool exists;\n\n    CarbonCreditToken cct;\n\n    address ccm_addr;\n\n    modifier onlyBuyer() {\n        require(msg.sender == buyer, \"Only buyer can call this method\");\n        _;\n    }\n\n    modifier onlySeller() {\n        require(msg.sender == seller, \"Only seller can call this method\");\n        _;\n    }\n\n    modifier onlyCCM() {\n        require(msg.sender == ccm_addr, \"Only the CCM contract can call this method\");\n        _;\n    }\n\n    constructor(address _buyer, address _cct, address _ccm, uint amount) {\n        buyer = _buyer;\n        seller = address(0);\n        itmo_amt = amount;\n        locked = true;\n        cct = CarbonCreditToken(_cct);\n        ccm_addr = _ccm;\n    }\n\n    function exists() public view returns (bool) {\n        return itmo_amt > 0;\n    }\n\n    function getAmount() public view returns (uint) {\n        return itmo_amt;\n    }\n\n    function price() public view returns (uint) {\n        return _deposit;\n    }\n\n    function getSeller() public view returns (address) {\n        return seller;\n    }\n\n    function accept() public {\n        require(seller == address(0)); // require that no one accepted the contract yet\n        seller = msg.sender;\n    }\n\n    // this function can only be called by the CarbonCreditMarket smart contract\n    // after funds have been sent correctly. Then the account can be unlocked\n    function unlock() onlyCCM external {\n        locked = false;\n    }\n\n    function withdraw() external {\n        require(locked == false);\n        // TODO: call CarbonCreditToken API to transfer funds from escrow to msg.sender balance\n        cct.transferEscrow(address(this), tx.origin, _deposit);\n    }\n\n    // deposit sets the price to however much is deposited\n    function deposit(uint _price) external {\n        bool success = cct.transfer(address(this), _price);\n        if (!success) {\n            revert(\"failed to transfer\");\n        }\n        _deposit = _price;\n    }\n\n    function close() public {\n        cct.deleteEscrow(address(this));\n    }\n\n}",
  "sourcePath": "/Users/brianli/bc-climate/contracts/CarbonCreditToken.sol",
  "compiler": {
    "name": "solc",
    "version": "0.8.12+commit.f00d7308.Emscripten.clang"
  },
  "schemaVersion": "3.4.6",
  "updatedAt": "2022-05-06T15:43:57.620Z",
  "devdoc": {
    "kind": "dev",
    "methods": {},
    "version": 1
  },
  "userdoc": {
    "kind": "user",
    "methods": {},
    "version": 1
  }
}